:1070000055C000006EC000006CC000006AC00000E7
:1070100068C0000066C0000064C0000062C00000DC
:1070200060C000005EC0000075C400005AC00000CF
:1070300058C0000056C0000054C0000052C00000FC
:1070400050C00000B6C000004CC000004AC00000A4
:1070500048C0000046C0000044C0000042C000001C
:1070600040C000003EC000003CC000003AC000002C
:1070700038C0000036C0000034C0000032C000003C
:1070800030C000002EC000002CC000002AC000004C
:1070900028C0000026C0000024C0000022C000005C
:1070A00020C000001EC000001CC0000011241FBE34
:1070B000CFEFDAE0DEBFCDBF11E0A0E0B1E0E0EE5F
:1070C000FDE702C005900D92A63AB107D9F721E07D
:1070D000A6EAB1E001C01D92A63BB207E1F70ED3CC
:1070E00073C68ECF84E08093E9008091E80085FF2D
:1070F00003C08091F1000CC08091E8008B778093F1
:10710000E8008091E80082FDF0CF8EB38111F9CFC5
:10711000089593E09093E9009091E80095FF03C0F3
:107120008093F10008959091E8009E779093E80095
:107130009091E80090FDF4CF9EB39111F9CF08959E
:10714000F89410926F0010928100109285001092B6
:10715000840081E085BF15BE0C940000089584B7BB
:10716000877F84BF0FB6F894A895809160008861EE
:1071700080936000109260000FBE90E880E00FB630
:10718000F89490936100809361000FBE81E085BF09
:1071900082E085BFE1E6F0E09083108210928900E2
:1071A0009AEF9093880080936F0083E08093810032
:1071B00099C31F921FB61F9211242F938F939F93F1
:1071C000EF93FF931092850010928400F0E0E0E0CE
:1071D00085919491019649F08091A6019091A70123
:1071E00001969093A7018093A601FF91EF919F9143
:1071F0008F912F911F901FBE1F90189542E061EC58
:1072000082E005D342E161E883E001D342E160E836
:1072100084E0FDC28091AE01982F9F779132B9F43E
:107220009091AF019032A1F0913289F4813A79F4D2
:107230008091E800877F8093E80067E070E082E05B
:1072400091E019D48091E8008B778093E80008954D
:107250008132E9F78091E800877F8093E80067E05A
:1072600070E082E091E05BD48091E8008E77EDCF12
:107270004F925F926F927F928F929F92AF92BF9246
:10728000CF92DF92EF92FF920F931F93CF93DF93F2
:1072900084E08093E9008091E80082FF1EC222DF33
:1072A000C82F853451F58CE393E79093A701809321
:1072B000A60107B600FCFDCFF999FECF81E18093CE
:1072C0005700E8958DE025DF83E08093E9009091F9
:1072D000E8008091E8008E778093E80095FFF0C188
:1072E0008091E80080FFF6C184E08093E9008091FE
:1072F000E8008B778093E800F0C1843511F4F2DE6A
:10730000E1CF8C34F9F28035E9F2843721F484E45A
:1073100000DF80E0D8CF89E5C136A9F2C134D1F4CD
:10732000E1DEC82FDFDE2C2F30E0322F2227330F93
:1073300090E0880F991F822B932B092E000CAA0B2B
:10734000BB0B8093A8019093A901A093AA01B093CD
:10735000AB01B8CF83E5C03709F4B5CFC33549F4E5
:10736000CDE9D1E08991D5DE21E0C43AD207D1F749
:10737000ABCFC63521F481E3CCDE80E3A4CFC337A5
:1073800031F487E8C6DE85E9C4DE8EE19CCFC536E0
:10739000B9F4F0E0E0E083E095E080935700E895F1
:1073A00007B600FCFDCF90935700E89507B600FCA8
:1073B000FDCFE058FF4FE11520E7F20771F782CFCC
:1073C00089E0E1E0F0E0C23779F089E0F0E0E0E068
:1073D000C63451F089E0E3E0F0E0CE3429F0C13565
:1073E00039F489E0E2E0F0E08093570084916BCFBC
:1073F000C23631F489E58DDE80E08BDE80E863CF34
:10740000C23419F0C73609F0CBC01092A701109210
:10741000A60168DE182F66DE082F64DED82F8BEBFE
:107420008D0F823010F08FE34ECF10926F00C73671
:1074300009F045C081E180935700E895C0E0BB2486
:10744000B3940150110920F482E080936F003CCF87
:10745000C090A801D090A901E090AA01F090AB01E2
:10746000D634B9F4EC2FF0E0EC29FD29849151DEFB
:10747000CC2369F082E0C80ED11CE11CF11CC09243
:10748000A801D092A901E092AA01F092AB01CB250C
:10749000D8CFD701C601B695A795979587957ED485
:1074A00038DEE2E0CE0ED11CE11CF11CC092A80136
:1074B000D092A901E092AA01F092AB01C2CF409014
:1074C000A8015090A9016090AA017090AB01D63438
:1074D00041F483E0F20180935700E89507B600FC81
:1074E000FDCFC0E0F12CEE24E39424C0D63409F0A3
:1074F00034C0FF2079F18090A8019090A901A0905C
:10750000AA01B090AB01EEDD982F8C2FF4010C0195
:10751000E0925700E8951124F2E08F0E911CA11C17
:10752000B11C8092A8019092A901A092AA01B092E8
:10753000AB01FE2401501109C8F6D63441F485E0B0
:10754000F20180935700E89507B600FCFDCF8DE06F
:10755000E0DD7ACFC7DDC82FECCFC4DD682F809186
:10756000A8019091A901A091AA01B091AB01B69593
:10757000A795979587951AD48091A8019091A90114
:10758000A091AA01B091AB010296A11DB11D8093FB
:10759000A8019093A901A093AA01B093AB01CACF0F
:1075A000C33471F4C091A801D091A9019BDD90E092
:1075B00021E0FE010C0120935700E895112482CEB2
:1075C000C33601F5C090A801D090A901E090AA01AE
:1075D000F090AB0187DDF601E16090E021E00C0165
:1075E00020935700E8951124F2E0CF0ED11CE11C46
:1075F000F11CC092A801D092A901E092AA01F092D8
:10760000AB0160CECD3661F4E091A801F091A90103
:1076100085E080935700E89507B600FCFDCF52CE79
:10762000C23551F4E091A801F091A901C591D4911E
:107630008D2F6FDD8C2F47CEC434D9F453DD682FE6
:107640008091A8019091A901A091AA01B091AB01EC
:10765000B695A79597958795A9D38091A801909104
:10766000A901A091AA01B091AB010296A11DB11D83
:1076700068CEC436F1F4C090A801D090A901E09082
:10768000AA01F090AB01D701C601B695A7959795D1
:10769000879584D33EDD22E0C20ED11CE11CF11C93
:1076A000C092A801D092A901E092AA01F092AB0188
:1076B0000BCECB3109F408CEB6CE8EB3882369F059
:1076C0008091E80080FFF9CF8091E8008E77809369
:1076D000E80006CE8EB3811103CEDF91CF911F91CA
:1076E0000F91FF90EF90DF90CF90BF90AF909F9061
:1076F0008F907F906F905F904F90089580910008D9
:1077000090910108109201081092000884B714BEED
:107710000FB6F894A89590916000986190936000DE
:10772000109260000FBEF0E0E0E0259134912F3F11
:107730003F4FB1F08230A1F08198809A899A889861
:107740008FE19EE40197F1F700C00000799B08C02B
:107750008FE39CE90197F1F700C000007999F0DC14
:10776000FEDC78941092A7011092A60181DDFFD271
:107770008091A6019091A70180339547B8F38FE9D6
:107780009FE00197F1F700C000008091E000816068
:107790008093E000D5DC90E080E00895FA01292F85
:1077A00030E022303105D1F02330310551F0213065
:1077B000310541F582E190E02BE831E0318320830F
:1077C0000895882381F0813099F08230B1F08330C0
:1077D000C9F48EE090E029E031E0F0CF8EE390E054
:1077E0002DE431E0EBCF84E090E029E431E0E6CF16
:1077F00084E190E023E331E0E1CF88E190E029E10A
:1078000031E0DCCF90E080E030E020E0D7CF809323
:10781000E900EBEEF0E0808181608083EDEEF0E046
:1078200010826093EC0040838091EE00881F8827CF
:10783000881F08958091AE0187FF11C08091E800F4
:1078400082FF06C08091E8008B778093E80003C038
:107850008EB38111F3CF08958EB38823E1F3809125
:10786000E80080FFF9CF8091E8008E77EECF0F938C
:107870001F93CF93DF9341D048D0C8EDD0E08881EB
:107880008F77888388818068888388818F7D8883CB
:1078900019BC1EBA1092AC0100EE10E0F801808114
:1078A0008B7F808388818160888342E060E080E014
:1078B000AEDFE1EEF0E080818E7F8083E2EEF0E0EB
:1078C000808181608083808188608083F8018081ED
:1078D0008E7F8083888180618883DF91CF911F9123
:1078E0000F910895E7EDF0E08081816080838AE464
:1078F00082BF81E08093AD01BACFE8EDF0E08081F6
:107900008E7F80831092E20008951092DA00109228
:10791000E10008951F920F920FB60F9211242F933A
:107920003F934F935F936F937F938F939F93AF9307
:10793000BF93EF93FF938091DA0080FF17C080918F
:10794000D80080FF13C08091DA008E7F8093DA0028
:107950008091D90080FF4EC080E189BD82E189BD60
:1079600009B400FEFDCF81E08EBB00D28091E10022
:1079700080FF17C08091E20080FF13C08091E20079
:107980008E7F8093E2008091E20080618093E2002C
:107990008091D80080628093D80019BC85E08EBBAE
:1079A000E5D18091E10084FF30C08091E20084FF46
:1079B0002CC080E189BD82E189BD09B400FEFDCF04
:1079C0008091D8008F7D8093D8008091E1008F7ED8
:1079D0008093E1008091E2008F7E8093E2008091AD
:1079E000E20081608093E2008091AC01882331F055
:1079F00084E009C019BC1EBAB9D1B8CF8091E300A8
:107A000087FDF6CF81E08EBBB1D18091E10083FF8D
:107A100021C08091E20083FF1DC08091E100877F3B
:107A20008093E10082E08EBB1092AC018091E10076
:107A30008E7F8093E1008091E2008E7F8093E20050
:107A40008091E20080618093E20042E060E080E0AB
:107A5000DEDE8CD1FF91EF91BF91AF919F918F911D
:107A60007F916F915F914F913F912F910F900FBE3A
:107A70000F901F901895FC01CB012091B40130911B
:107A8000B5012617370790F0009729F42091E800F8
:107A90002E772093E80040E0009751F4411108C090
:107AA0008091E80082FF30C080E00895C901F3CFE3
:107AB0002EB3222391F1253061F12091E80023FDBE
:107AC0002AC02091E80022FDEBCF2091E80020FFA2
:107AD000E3CF3091F3002091F200009719F02830A5
:107AE000310558F041E02830310509F040E020919F
:107AF000E8002E772093E800CFCF41914093F1002A
:107B000001972F5F3F4FE9CF8EB3882331F0853047
:107B100039F683E0089581E0089582E00895FC013C
:107B2000CB01009729F42091E8002B772093E800FF
:107B3000009731F48091E80080FF1BC080E0089539
:107B40002EB32223F9F02530C9F02091E80023FD5F
:107B500017C02091E80022FFEBCF3091F300209175
:107B6000F200232B01F32091F10021930197A9F753
:107B7000DACF8EB3882331F08530E1F683E00895C3
:107B800081E0089582E008950F931F93CF93DF93D0
:107B900000D0CDB7DEB78EEA91E0FC0101962091CE
:107BA000F100208321E0863B9207B9F733DB809117
:107BB000E80083FF29C08091AE019091AF019A3017
:107BC00018F5E92FF0E0EA51F14CE2C08238E1F417
:107BD0008091B20187708093E9008091EB0085FB72
:107BE000882780F91092E9009091E800977F9093A0
:107BF000E8008093F1001092F1008091E8008E7708
:107C0000B1C0823009F492C08091E80083FF0AC0BD
:107C10008091EB0080628093EB008091E800877F89
:107C20008093E8000F900F90DF91CF911F910F91FB
:107C300008959091EB0090619093EB0021E030E08B
:107C400001C0220F8A95EAF72093EA001092EA0019
:107C50008091EB0088607FC08111D6CF1091B00178
:107C60001F770FB7F8948091E800877F8093E80032
:107C7000E1DD8091E80080FFFCCF8091E300807817
:107C8000812B8093E30080688093E30082E01111F0
:107C900083E08EBB0FBFB8CF8058823008F0B4CFDE
:107CA000AE014F5F5F4F6091B2018091B001909142
:107CB000B10174DDBC01892B09F4A6CF8091E800E5
:107CC000877F8093E80089819A81D5DE8091E800E2
:107CD0008B778093E80098CF803809F095CF80911A
:107CE000E800877F8093E8008091AC018093F100E9
:107CF00084CF811189CF9091B001923008F084CF68
:107D00008091E800877F8093E8009093AC0192DD3A
:107D10008091AC01882311F084E005C08091E300DC
:107D200087FDFACF81E08EBB69DA6ECF8091B0011A
:107D3000811113C08091B201877009F465CF8093DF
:107D4000E9002091EB0020FF08C0933009F071CFCB
:107D50008091EB0080628093EB001092E9008091AB
:107D6000E800877F8093E80065DD4ECF0895CF93CC
:107D70008EB3882359F0C091E900C7701092E900D2
:107D80008091E80083FD00DFC093E900CF91089562
:107D9000EE0FFF1F0590F491E02D0994F999FECFA5
:107DA00092BD81BDF89A992780B50895262FF9993B
:107DB000FECF1FBA92BD81BD20BD0FB6F894FA9ACE
:107DC000F99A0FBE01960895F894FFCFE63D013E63
:107DD000043E013E043E2C3E4C3E043E6C3E793E49
:107DE0007777000000000000080E036B0062006956
:107DF000006F0030003100000018034B006500796F
:107E00000062006F0061007200640069006F002072
:107E1000000000140349004F00200062006F006161
:107E20000072006400200000000403090409023EFF
:107E30000002010080320904000001020201000575
:107E40002400100104240204052406000107058211
:107E5000030800FF09040100020A000000070504EE
:107E60000210000107058302100001120110010237
:107E700000000809120223010002010301434154DA
:067E80004552494E41008D
:040000030000700089
:00000001FF
